:030000000200C635
:0C00C600787FE4F6D8FD75810F02010D73
:0C027B00010900040C0000000001080054
:10025B0000EF1F70011E14D39400EE940050F12296
:10022800AD07AC06D3ED9400EC9400400E7FE87E59
:0C0238000312025BED1D70EC1C80E9223B
:0402920075E7812269
:09026B00E42DEC3420F5E38DE4F0
:0702740075E64675E6B922AC
:0A028800E4F5E2F5E3F5E4F5E72202
:10000300AD07AC0612029275E50312026B7F0A7EFE
:0E001300001202287F847E0312025B02028824
:10020600AB07AA0612029275E502E42BEA3420F542
:10021600E38BE48DE21202747F3C7E0012025B02E5
:0202260002884C
:10024400AD07AC0612029275E50112026B7F0B7EBC
:070254000012025BAFE22281
:1001D900FFFE1202448F997590FD7F587E0212012D
:0801E900F17590FF7F587E02C2
:1001F100D3EF9400EE9400400B7DFFDDFEEF1F7006
:04020100EF1E80EC80
:0102050022D6
:03002300020026B2
:10002600C0E0C0D075D000C000C004C005C006C086
:0100360007C2
:10003700C298E4FFFE1202448F0B740C2508F8A641
:1000470099740C2508F8E6FFB4AA02800AEFB4BB3E
:10005700028004EFB4DD057508018054E50CB4AAED
:1000670009EFB50B057508028046E508B4020405DB
:1000770008803DE508B4030BE50EF4B507057509DF
:1000870001801FE5086401701BE50CB4BB05750909
:1000970002800FE50CB4DD0AE50DB50B0575090403
:1000A700800B8009EFB4CC05750903800075080043
:0F00B700D007D006D005D004D000D0D0D0E03292
:10015200758920758DFD758BFDD28ED29CC29FD282
:100162009ED2AFD2ACE50964017015C2ACF5098527
:100172000E808580997590FE1201E33099FD8033DF
:10018200E5096402701DC2ACF509850D0BFFFE1274
:100192000003AD0BE4FFFE120206E41201D930990E
:1001A200FD8010E50964037011C2ACF5091201D992
:1001B2003099FDC299D2AC020167E509640470A5C9
:1001C200C2ACF5098580997590FE1201E33099FD64
:0701D200C299D2AC020167E3
:1000D200020152E493A3F8E493A34003F68001F2F1
:1000E20008DFF48029E493A3F85407240CC8C3332F
:1000F200C4540F4420C8834004F456800146F6DFFE
:10010200E4800B010204081020408090027BE47E10
:10011200019360BCA3FF543F30E509541FFEE493F2
:10012200A360010ECF54C025E060A840B8E493A3B9
:10013200FAE493A3F8E493A3C8C582C8CAC583CAE4
:10014200F0A3C8C582C8CAC583CADFE9DEE780BE9C
:010287000076
:00000001FF
